:020000040800F2
:1000000000080020B50100082D230008F51E000897
:1000100029230008B1020008F524000800000000B0
:10002000000000000000000000000000D1230008D4
:10003000B50200080000000031230008D5230008A5
:10004000CF010008CF010008CF010008CF01000850
:10005000CF010008CF010008CF010008CF01000840
:10006000CF010008CF010008CF010008CF01000830
:10007000CF010008CF010008CF010008CF01000820
:10008000CF010008CF010008CF010008CF01000810
:10009000CF010008CF010008CF010008CF01000800
:1000A000CF010008CF010008CF010008CF010008F0
:1000B000CF010008CF010008CF010008CF010008E0
:1000C000CF010008CF010008CF010008CF010008D0
:1000D000CF010008E9240008CF010008CF01000883
:1000E000CF010008CF010008CF01000800F002F89E
:1000F00000F050F814A696E8000CB244B344DA4578
:1001000001D100F047F8BAE80F000FA696E83000DA
:10011000A5EB040504EB0607AAEB0704A7F101070A
:100120004FEA15154FEA3414A4F10104AC4201D38F
:1001300000F030F813F0010F18BFFB1A43F0010371
:1001400000F001F8DBE7184790240000B02400001D
:10015000103A24BF78C878C1FAD8520724BF30C8F3
:1001600030C144BF04680C60704700007047000055
:100170000023002400250026103A28BF78C1FBD8B0
:10018000520728BF30C148BF0B6070471FB51FBD65
:1001900010B510BD00F031F81146FFF7F7FF02F07F
:1001A000ABF900F04FF803B4FFF7F2FF03BC00F027
:1001B00057F800000948804709480047FEE7FEE776
:1001C000FEE7FEE7FEE7FEE7FEE7FEE7FEE7FEE707
:1001D00004480549054A064B70470000D92300082A
:1001E000ED000008000200200008002000040020AC
:1001F00000040020704770477047754600F02CF8E7
:10020000AE4605006946534620F00700854618B003
:1002100020B5FFF7DDFFBDE820404FF000064FF0AE
:1002200000074FF000084FF0000BAC46ACE8C009E7
:10023000ACE8C009ACE8C009ACE8C00921F007018E
:100240008D46704710B50446AFF300802046BDE8E8
:100250001040FFF7A8BF00000048704710000020C2
:1002600001491820ABBEFEE72600020070470000DF
:1002700010B540F27004C2F200046188012002F05F
:1002800081F80A2000F09EF82078618840B1023998
:100290000A04618018BF10BD80F00100207010BDFD
:1002A00002318AB2B32A6180F6D810BD02F042B89A
:1002B000FEE7000070470000EFF3108072B600BF49
:1002C000FEE70000014690F82100022816D10868D8
:1002D000D1E90FC3026822F00E020260026822F028
:1002E00001020260012000FA03F2CCF8042081F838
:1002F00021000020002281F820207047042088631C
:100300000120002281F820207047000090F8211081
:10031000022923D1026840F2040C1168C4F2020CD5
:1003200021F00E01116013682F21C4F202018A42EC
:1003300023F00103136015DD3023C4F202039A4257
:100340001CD04423C4F202039A421BD05823C4F2A7
:1003500002039A421CD14FF4803321E004218163CF
:10036000012070470823C4F202039A420ED01C23D6
:10037000C4F202039A420BD1102311E04FF48073B0
:100380000EE000BF4FF480530AE000BF012307E0F6
:100390000CF168014FF080738A4208BF4FF480135C
:1003A0000121CCF8003080F82110416B0022002997
:1003B00080F8202004BF0020704780B588470020C7
:1003C00080BD0000B0B5044600F01EF9054640F2BD
:1003D0000000C2F200000078611C18BF044400BF96
:1003E00000F012F9401BA042FAD3B0BD2DE9F04F46
:1003F00082B00E68002E00F0FD8041F20042C4F28F
:100400000102042340F2004E904208BF03234FF63E
:10041000FF7CC4F2010E009300240123C1F2100CF2
:100420004FF0000A4FF000094BE000BF41F200021C
:10043000C4F20102009F904208BF022704F00C039F
:100440000F229A402BEA020207FA03F34FEA9A05B9
:100450001A4346F825204E6840F20C45F202DEF8B9
:10046000082054BF22EA080242EA0802C4F2010549
:10047000CEF808202A68B30254BF22EA080242EAF2
:1004800008022A60B303DEF8042054BF22EA0802FF
:1004900042EA0802F303CEF80420DEF800204FF011
:1004A000010354BF22EA080242EA0802CEF8002003
:1004B0000E680AF1010A36FA0AF204F1040400F0A7
:1004C000998003FA0AFB16EA0B08F1D04E686645DC
:1004D00012DC122E56D8DFE806F0350B4D49555583
:1004E000555555555555555555555545510000BF10
:1004F000D1F80C9046E000BF4FF6FF72C1F2210226
:1005000096420FDC0022C1F2110296421AD000225C
:10051000C1F21202964215D00022C1F22102964287
:1005200010D02FE00022C1F2220296420AD000220F
:10053000C1F23102964205D00022C1F23202964247
:1005400020D100BF8A684AB1012A14BFC0F814B094
:10055000C0F810B04FF0080914E000BF4FF00409D4
:1005600010E000BFCA6802F104090BE04FF0000977
:1005700008E000BFCA6802F1080903E0CA6802F196
:100580000C0900BF02462646B8F5807F24BF04321E
:10059000203E17680F25B54027EA050509FA06F63B
:1005A00035431560CA79D2067FF582AF41F2180350
:1005B000C4F202031A68AEF57E7642F001021A60B8
:1005C0001A6802F001020192019A2AF0030256F819
:1005D00002B040F60002C4F20102904208D040F698
:1005E0000042C4F2010290427FF420AF012725E7C8
:1005F000002723E702B0BDE8F08F0000002A08BF03
:10060000090401617047000040F2F810C2F20000D6
:1006100000687047002804BF01207047F0B581B022
:10062000044690F83D0028B9002084F83C0020469C
:1006300000F0A2F8242084F83D002068016821F031
:1006400001010160016841F400410160016821F489
:100650000041016000F05AFA636848F2A16CC0F2F0
:10066000010C40F60011C0F23D0163453CBF48F269
:100670008041C0F21E01884202D2012001B0F0BDCB
:100680004DF68361C4F21B31A0FB01122168970C67
:10069000D1F804E04FF496762EF03F0545EA9245F6
:1006A0004D60774348F638160D6AC0F24106A7FB45
:1006B000067625F03F07634538BF960C721C3A4317
:1006C0000A62CA6948F2A0664CF6FF77C0F20106DA
:1006D000B34222EA07020BD801385B00B0FBF3F00B
:1006E00001306FF31F30042898BF04201BE000BFC7
:1006F000A768013857B119277B43B0FBF3F00130ED
:100700006FF31F3070B100F5804007E003EB430347
:10071000B0FBF3F001306FF31F3018B100F500406B
:1007200001E000BF01201043C8610868D4E9072335
:1007300020F0C000104318430860886848F2FF3278
:1007400004F10C0790438CCF18431043A6698860CE
:10075000C86820F0FF0038433043C860086840F0A4
:100760000100086000202021206484F83D102063EF
:1007700084F83E0001B0F0BD10B586B0016845F2C6
:100780000040C4F2000081424FF00001CDE90411A5
:10079000CDE9021102D006B010BD00BF41F218042D
:1007A000C4F20204216800F5384041F008012160DC
:1007B000216801F0080101910199C02102911221E3
:1007C00003910321059102A9FFF710FE606840F430
:1007D00000106060606800F400100190019806B09D
:1007E00010BD000040F2000040F2F811C2F200001B
:1007F000C2F2000100780A681044086070470000E7
:1008000080B542F20000C4F20200016841F010011C
:100810000160032000F08CF80F2000F005F800F0D4
:1008200027F8002080BD000070B540F20006C2F23B
:10083000000640F208013278C2F200014FF47A73E8
:100840000968B3FBF2F20446B1FBF2F1084600F08E
:1008500017FC0F2C4FF0010508D838B94FF0FF30C6
:1008600021460022002500F037F87460284670BD4C
:1008700082B041F21800C4F202000168022241F085
:1008800001010160016801F00101019101994168D4
:1008900041F080514160406800F080500090009825
:1008A0000420C4F20100016862F31A61016002B021
:1008B00070470000002848BF704700F01F01012268
:1008C00002FA01F11C2202EAD0004EF20012CEF22E
:1008D000000281507047000010B54EF60C5CCEF25D
:1008E000000CDCF80030C3F3022E8EF00704042C59
:1008F00028BF0424BEF103034FF0FF3E0EFA04F4B8
:1009000038BF0023A14399400EFA03F39A431143E1
:1009100000F00F0200F160430901043A03F564435B
:100920006244002848BF02F10C03197010BD00009A
:100930004EF60C51CEF200010A684FF6FF031A4042
:1009400060F30A2242F0806040F0FD70086070475A
:10095000002804BF012070472DE9F04381B042F226
:100960000008C4F202080446D8F800000D4600F062
:10097000070081420CD9D8F8000020F00700284376
:10098000C8F80000D8F8000000F00700A8426CD1B9
:10099000206841F204098107C4F2020917D5410712
:1009A00005D5D9F8001041F4E061C9F8001001073D
:1009B00005D5D9F8001041F46051C9F80010D9F8F4
:1009C0000010A26821F0F0011143C9F80010C0071F
:1009D00042D1D8F8000000F0070085420CD2D8F8C8
:1009E000000020F007002843C8F80000D8F80000F5
:1009F00000F00700A84238D12068410707D5D9F890
:100A00000010E26821F4E0611143C9F8001000070A
:100A100008D5D9F80000216920F4605040EAC100EF
:100A2000C9F80000D9F8002002F00C00082841F2B3
:100A30000020C0F27A004DD142F2C653C2F3834186
:100A4000C0F60003595CD20338D440F60010C0F25F
:100A50003D0048433EE000BF606859F8041C02288E
:100A600008D0012826D1890306D4012001B0BDE8B1
:100A7000F08300BF8901F8D5D9F8001021F00301F7
:100A80000843C9F80000FFF7BFFD064641F288376A
:100A9000D9F80000616800F00C00B0EB810F98D02D
:100AA000FFF7B2FD801BB842F2D9032001B0BDE8C8
:100AB000F08300BF8907D8D5DEE700BFD9F8002052
:100AC00042F2C453C2F34042C0F600039A5C48436A
:100AD000B0FBF2F0D9F8001042F2AC52C1F30311AE
:100AE000C0F60002515C40F2080220FA01F140F227
:100AF0000400C2F200000068C2F200021160FFF7B9
:100B000093FE002001B0BDE8F083000040F2080031
:100B100041F20401C2F20000C4F202010068096857
:100B200042F2BC52C1F30221C0F60002515CC8403F
:100B30007047000040F2080041F20401C2F20000D8
:100B4000C4F202010068096842F2BC52C1F3C2213A
:100B5000C0F60002515CC84070470000002804BF86
:100B6000012070472DE9F04182B00446007841F23F
:100B70000006C007C4F202060CD0706800F00C003A
:100B8000042840F081803068800303D56068002825
:100B900000F04681207880071BD5706810F00C0F9C
:100BA00009D0706800F00C00082840F08780706859
:100BB000C00300F183803068800703D520690128D5
:100BC00040F02E813068616920F0F80040EAC100F1
:100BD00030602078000713D4207840072CD4E569D2
:100BE000002D00F01881706800F00C00082840F01B
:100BF000A780012D40F00481012002B0BDE8F08102
:100C0000A069002800F084800020C4F24220012165
:100C1000C0F88014FFF7F8FC054600BF706A800733
:100C200000F1B280FFF7F0FC401B0228F6D9032048
:100C300002B0BDE8F08100BFF0695FEAC00808D4E7
:100C4000F06940F08050F061F06900F08050009051
:100C5000009847F20007C4F200073868C00549D47D
:100C6000386840F480703860FFF7CEFC054600BF5E
:100C70003868C0053ED4FFF7C7FC401B6428F7D98D
:100C8000032002B0BDE8F081706800F00C00082875
:100C900003D17068C0033FF576AF61683068002902
:100CA00000F00C81B1F5A02F00F00081B1F5803F7C
:100CB00040F01A8140F480301CE100BF2069002818
:100CC00040F20000C4F2422000F08880012101605F
:100CD000FFF79AFC054600BF306880073FF572AF0A
:100CE000FFF792FC401B0228F6D9032002B0BDE8B2
:100CF000F08100BFE168306A002900F09D8005297D
:100D000000F09280012940F0AF8040F00100B1E096
:100D10000020C4F242200021C0F88014FFF774FCC8
:100D2000054600BF706A80077FF556AFFFF76CFC81
:100D3000401B0228F6D9032002B0BDE8F08100BFB5
:100D40000027C4F2422700203866FFF75DFC022D21
:100D500005460DD13068800140F1DE80FFF754FC7C
:100D6000401B02284FF00300F4D902B0BDE8F08127
:100D7000306880014FD5FFF747FC401B02284FF039
:100D80000300F5D9F1E700BF40F20800C2F200000D
:100D9000006844F6D351C1F26201A0FB0101480A88
:100DA000019000BF00BF0198411E002801913FF44F
:100DB00013AF00BF0198411E002801913FF40CAF12
:100DC00000BF0198411E002801913FF405AF00BF0C
:100DD0000198411E00280191E4D1FDE60021016047
:100DE000FFF712FC054600BF306880077FF5F1AEC3
:100DF000FFF70AFC401B02284FF00300F4D9B4E7C8
:100E00007068216A00F480328A4209D1616A00F474
:100E10007010884204D1002002B0BDE8F08100BF0C
:100E2000012002B0BDE8F08140F004003062306A79
:100E300040F001001EE000BF20F001003062306A87
:100E400020F004003062FFF7DFFB054641F28837EF
:100E5000306A800720D5FFF7D7FB401BB8424FF020
:100E60000300F5D981E700BF20F001003062306A4D
:100E700020F004003062FFF7C7FB054641F28837D7
:100E8000306A800708D4FFF7BFFB401BB842F7D990
:100E9000032002B0BDE8F081B8F1000F3FF59FAE2E
:100EA000F06920F08050F06199E600BF40F48020A6
:100EB0003060306840F480301CE000BF20F48030A7
:100EC0003060306820F480203060FFF79DFB0546DD
:100ED000306880037FF55EAEFFF796FB401B642809
:100EE0004FF00300F4D940E720F4803030603068E0
:100EF00020F480203060FFF787FB054630688003D0
:100F00003FF548AEFFF780FB401B6428F6D903206D
:100F100002B0BDE8F08100BF206AB0F5803F05D186
:100F20007168A26821F40031114371607168626ACE
:100F300021F4741111430843706001203866FFF7F3
:100F400063FB0446306880013FF565AFFFF75CFB4B
:100F5000001B02284FF00300F4D906E770B528B152
:100F6000416A29B100210161142106E0012070BD10
:100F70004168B1F5827F02D01C2100224250002638
:100F8000866290F8511029B980F85060054600F04B
:100F900039F82846022180F8511090E82E0002F41A
:100FA00082720C6803F4044324F040040C601A4479
:100FB00005F4006305691A4405F0020345691A4403
:100FC00005F001038569C4691A4405F400731A44E5
:100FD00004F03803046A1A4404F08003846A1A4354
:100FE00004F400531A430A60042202EA15424A60DC
:100FF000CA6922F40062CA610121466580F8511075
:10100000304670BD70B586B040F60004C4F20104ED
:10101000006804F52051002688420596CDE9036654
:10102000029601D006B070BD41F21800C4F2020071
:10103000016802AD41F480510160016801F4805102
:1010400001910199016841F004010160006829469D
:1010500000F0040001900198A0200290022003906B
:10106000032005902046FFF7C1F94020CDE9020694
:10107000204629460496FFF7B9F906B070BD000076
:10108000411E0020B0EB116F1CBF012070474EF2D3
:101090001002CEF2000251604EF62351CEF2000152
:1010A000F0230B70072190601160704790F83C208E
:1010B000012A4FF0020236D010B580F83D200268B8
:1010C000D2F804E0D2F808C00C682EF07003234375
:1010D00040F2FF74C4F20004A24253600ADCB2F191
:1010E000804F13D040F20043C4F200039A420DD067
:1010F00011E000BF42F60043C4F201039A4205D05A
:1011000040F60003C4F200039A4204D149682CF06F
:101110008003194391600121002280F83D1080F87E
:101120003C20BDE81040104670470000002804BF76
:101130000120704710B590F83D1031B9002180F8BA
:101140003C10044600F070F82046022180F83D1063
:10115000016840F2FF740B68C4F2000442F6004CD0
:10116000A142C4F2010C15DCB1F1804F1AD040F25B
:101170000042C4F20002914214D0A14218DCB1F145
:10118000804F1DD040F20042C4F20002914217D0BD
:101190001AE000BF614505D040F60002C4F200022B
:1011A0009142EAD1826823F070031343A142E6DD45
:1011B000614505D040F60002C4F20002914203D11D
:1011C000026923F440731343846923F08002D0F84A
:1011D00004E0C368224361450A60CB62C1F828E09D
:1011E00002D14269CCF8302001224A610B69DB0749
:1011F00003D00B6923F001030B6180F8462080F8CF
:101200003E2080F83F2080F8402080F8412080F880
:10121000422080F8432080F8442080F8452080F860
:101220003D20002010BD00000068B0F1804F18BFC5
:10123000704781B041F21C00C4F20200016841F025
:1012400001010160006800F001000090009801B009
:101250007047000090F83C20012A4FF002026CD049
:1012600080B580F83D20D0F800C04FF67772DCF8EA
:10127000083023EA0202CCF808200B684F2B29DC47
:101280001F2B45DD202B46D0302B44D0402B40F087
:10129000AF80D1F804E0C968DCF82030DCF8202009
:1012A00022F00102CCF82020DCF8182022F0F00215
:1012B00042EA011123F00A0242EA0E02CCF81810A9
:1012C000CCF82020DCF8081041F0470121F0300173
:1012D00028E000BF6F2B33DDB3F5005F74D0B3F5AA
:1012E000805F21D0702B40F08380D1E901E3C96891
:1012F000DCF8082043EA0E0322F47F4243EA01218E
:101300001143CCF80810DCF8081041F0770109E02F
:101310000BB1102B6CD1DCF8081021F070011943CF
:1013200041F00701CCF808100022012180F83D109F
:10133000002180F83C10BDE880401046704700BF97
:10134000502B21D0602B53D1D1F804E0C968DCF8D0
:101350002030DCF8202022F01002CCF82020DCF82D
:10136000182022F4704242EA013123F0A00242EA3E
:101370000E12CCF81810CCF82020DCF8081041F040
:10138000670121F01001CDE7D1F804E0C968DCF86D
:101390002030DCF8202022F00102CCF82020DCF8FC
:1013A000182022F0F00242EA011123F00A0242EA78
:1013B0000E02CCF81810CCF82020DCF8081041F010
:1013C000570121F02001ADE7D1E901E3C968DCF85C
:1013D000082043EA0E0322F47F4243EA012111432D
:1013E000CCF80810DCF8081041F480419AE700BFFF
:1013F00001229AE790F83C30012B04BF022070478D
:101400004FEAB202032A00F2F1802DE9F043DFE84F
:1014100002F003A53B7500BF036842F600461D6A53
:101420001A6AC4F2010622F001021A621A465C68C6
:1014300052F818CFB3428E68D1F800E025F00205CB
:1014400045EA06050CD1CE68D1E9057824F440744C
:1014500025F00C0526F004063C43354344EA080415
:101460002CF0730747EA0E075C609F614F680969BB
:101470005F631D629F6947F008079F619F6927F0BE
:1014800004079F61A6E000BF036842F600461D6A9C
:101490001A6AC4F2010622F480721A621A46D3F85C
:1014A00004C052F81CEFB3428E680C6825F4007536
:1014B00045EA06250FD1CE68D1E90598360240F2FB
:1014C000FF4725F44065BE4335432CF4405748EAB6
:1014D000090647EA061C2EF073072743C3F804C029
:1014E000DF614F680969DF631D62DF6947F0080744
:1014F000DF61DF6927F00407DF616BE0036842F614
:101500000047D3F820C01A6AC4F2010722F48052BF
:101510001A621A465C6852F81C5FD1F800E08E68C7
:10152000BB4204D14F6924F4804444EA87142CF46C
:10153000005747EA063725F4E64646EA0E265C6081
:10154000DE614E6809691E641F62DF6947F4006747
:10155000DF61DF6927F48067DF613AE0036842F604
:1015600000461D6A1A6AC4F2010622F010021A62CD
:101570001A46D3F804C052F8184FB3428E68D1F817
:1015800000E025F0200545EA06150FD1CE68D1E927
:1015900005986FF0400725F0C00507EA06163543A9
:1015A0002CF4406748EA090647EA860C24F4E6442E
:1015B00044EA0E27C3F804C09F614F6809699F631E
:1015C0001D629F6947F400679F619F6927F48067E8
:1015D0009F6109021368194311600021BDE8F043BF
:1015E000002280F83C200846704700BF01210022FD
:1015F00080F83C2008467047002804BF012070474F
:1016000010B590F83D1031B9002180F83C10044627
:1016100000F070F82046022180F83D10016840F289
:10162000FF740B68C4F2000442F6004CA142C4F2FD
:10163000010C15DCB1F1804F1AD040F20042C4F227
:101640000002914214D0A14218DCB1F1804F1DD0AC
:1016500040F20042C4F20002914217D01AE000BFEB
:10166000614505D040F60002C4F200029142EAD181
:10167000826823F070031343A142E6DD614505D083
:1016800040F60002C4F20002914203D1026923F441
:1016900040731343846923F08002D0F804E0C368E8
:1016A000224361450A60CB62C1F828E002D1426959
:1016B000CCF8302001224A610B69DB0703D00B69AB
:1016C00023F001030B6180F8462080F83E2080F86B
:1016D0003F2080F8402080F8412080F8422080F8A8
:1016E000432080F8442080F8452080F83D200020E9
:1016F00010BD0000006840F20041C4F200018842C1
:1017000018BF704781B041F21C00C4F202000168AA
:1017100041F002010160006800F0020000900098B2
:1017200001B07047C1B1042908D0082914BF412273
:101730004022825C012A05D016E000BF3F22825C75
:10174000012A11D10222082910D0042914BF80F8DF
:10175000412080F83F200BE090F83E20012A03D181
:10176000022280F83E2003E00120704780F84020EC
:10177000006801F01F010122036A8A4023EA020186
:101780000162036A42F64441C4F201011A43A1F125
:101790004403984202620FD040F2FF71C4F200018C
:1017A000884213DCB0F1804F1CD040F20041C4F2FB
:1017B0000001884216D01CE00A6842F400420A6028
:1017C00040F2FF71C4F200018842EBDD42F60041B5
:1017D000C4F20101884205D040F60001C4F20001C4
:1017E000884206D1816801F00701062904BF002064
:1017F0007047016841F0010101600020704700005E
:101800007047000070470000B0B582B001680A68F8
:10181000CC684B6902F02F05202D04F0200505D17E
:1018200025B102B0BDE8B04000F0DEBD5FEA027C49
:101830001EBF03F0010E04F4907313EB0E0341D1AD
:10184000036BD50618D5012B16D114F0100313D055
:10185000002201920A6801924A680192019A49693C
:1018600049064BD4818DC28DC38D002B18BF914288
:1018700040F0F48102B0B0BD13062DD514F0800302
:101880002AD090F84120212AF4D18268B2F5805FF5
:1018900003D10269002A00F06782026A531C0362C6
:1018A00012784A60C28C013A1304C284E2D1C8683B
:1018B00020F08000C860C86840F04000C86002B0F6
:1018C000B0BD00BFD30718BF14F4807340F0D080C0
:1018D000530700F1D380D8E05206CBD514F0400274
:1018E000C8D0CA6822F04002CA60202180F84110A6
:1018F00002B0BDE8B04000F0FBBA00BFC16B0A689F
:10190000526893B2002BB5D0858DAB42B2D2C2855E
:101910008969202900F0A180016851E8031F02684D
:1019200021F4807142E80313DBB1016851E8031F21
:10193000026821F4807142E8031393B1016851E811
:10194000031F026821F4807142E803134BB1016860
:1019500051E8031F026821F4807142E80313002B51
:10196000DAD1016851E8051F026821F0010142E85F
:101970000513C3B3016851E8051F026821F0010196
:1019800042E805137BB3016851E8051F026821F0A6
:10199000010142E8051333B3016851E8051F0268ED
:1019A00021F0010142E80513002BDAD11BE000BF52
:1019B000016851E8051F026821F0400142E8051363
:1019C000DBB1016851E8051F026821F0400142E8DF
:1019D000051393B1016851E8051F026821F0400129
:1019E00042E805134BB1016851E8051F026821F078
:1019F000400142E80513002BDAD1202180F8421083
:101A000000210163016851E8031F026821F0100101
:101A100042E80313DBB1016851E8031F026821F0BB
:101A2000100142E8031393B1016851E8031F0268F3
:101A300021F0100142E803134BB1016851E8031F84
:101A4000026821F0100142E80313002BDAD1C16BC8
:101A500004460846FEF736FC204602214163818D8C
:101A6000C28D891A89B202B0BDE8B040FFF7C8BE86
:101A7000436C43F001034364530706D5BEF1000FE6
:101A800003D0436C43F002034364930706D5BEF1D1
:101A9000000F03D0436C43F004034364BCF1000F18
:101AA00006D55EEA050303D0436C43F008034364A4
:101AB000436C002B3FF4DEAE920605D525B10446FB
:101AC00000F092FC216820464969426C01F0400117
:101AD00002F00802891800F0B98000BF016851E8DF
:101AE000031F026821F4907142E80313BBB301683D
:101AF00051E8031F026821F4907142E8031373B3A5
:101B0000016851E8031F026821F4907142E8031351
:101B10002BB3016851E8031F026821F4907142E879
:101B20000313002BDAD11AE0016851E8051F02689F
:101B300021F0010142E80513DBB1016851E8051FFE
:101B4000026821F0010142E8051393B1016851E8F0
:101B5000051F026821F0010142E805134BB101683D
:101B600051E8051F026821F0010142E80513002B2E
:101B7000DAD1016B012924D1016851E8031F026801
:101B800021F0100142E80313DBB1016851E8031FA3
:101B9000026821F0100142E8031393B1016851E893
:101BA000031F026821F0100142E803134BB10168E2
:101BB00051E8031F026821F0100142E80313002BD3
:101BC000DAD1202180F842100021016301684969BF
:101BD000490640F1C380016851E8051F026821F001
:101BE000400142E80513DBB1016851E8051F0268B6
:101BF00021F0400142E8051393B1016851E8051F47
:101C0000026821F0400142E805134BB1016851E838
:101C1000051F026821F0400142E80513002BDAD1CC
:101C2000C16B002900F09A8042F2DD32C0F600025A
:101C3000044608464A63FEF769FB00283FF41AAEE3
:101C4000E06B416B02B0BDE8B04008470446FFF7C7
:101C5000D9FD0020606402B0B0BD00BF891A00BF8A
:101C6000026852E8032F036822F4907243E80325C8
:101C7000BDB3026852E8032F036822F4907243E870
:101C8000032575B3026852E8032F036822F49072AB
:101C900043E803252DB3026852E8032F036822F4BA
:101CA000907243E80325002DDAD11AE0026852E869
:101CB000052F036822F0010243E80525DDB1026823
:101CC00052E8052F036822F0010243E8052595B18B
:101CD000026852E8052F036822F0010243E8052557
:101CE0004DB1026852E8052F036822F0010243E873
:101CF0000525002DDAD1202280F84220002202633F
:101D0000026852E8032F036822F0100243E803251B
:101D1000DDB1026852E8032F036822F0100243E8A5
:101D2000032595B1026852E8032F036822F01002E0
:101D300043E803254DB1026852E8032F036822F0FF
:101D4000100243E80325002DDAD1022289B2426352
:101D500002B0BDE8B040FFF753BD00BF02B0BDE820
:101D6000B040FFF74FBD00BF026A32F8023B6FF38D
:101D70005F234B60026295E5002804BF0120704795
:101D800010B5044690F8410028B9002084F84000BE
:101D9000204600F063F8242084F841002068D4E94C
:101DA0000212C36823F40053C360036923F4405351
:101DB0001A430261D4E904231143C268194341F272
:101DC0000C639A431143C1604169A26921F44071D7
:101DD000114343F60002C4F201029042416103D074
:101DE000FEF794FE02E000BFFEF7A4FED4E9002354
:101DF000192148439900B0FBF1F048F21F5CC5F28D
:101E0000EB1CA0FB0C314FF69C734909C0F6FF7325
:101E100001FB0300322303EB0010A0FB0C03F020B6
:101E200000EA531000EB0110C3F343110844906023
:101E30001069202120F490401061506920F02A00A0
:101E40005061D06840F40050D0600020606484F895
:101E5000411084F84210606310BD000070B586B078
:101E600040F60004C4F20104006804F54051002665
:101E700088420596CDE90366029601D006B070BD92
:101E800041F21800C4F20200016802AD41F4804141
:101E90000160016801F4804101910199016841F0FC
:101EA000040101600068294600F0040001900198D7
:101EB0004FF400700290022003900320059020460A
:101EC000FEF794FA4FF48060CDE9020620462946D9
:101ED0000496FEF78BFA252000210022FEF7FCFC79
:101EE0002520FEF7E7FC06B070BD0000704700003B
:101EF00070470000FEE700002DE9F04385B00027A1
:101F000041F21800CDE90377CDE90177C4F2020070
:101F1000016840F6004441F0100101600168C4F21C
:101F2000010401F0100100910099016804F5806638
:101F300041F0200101600168012201F020010091BF
:101F4000009901684FF4005541F0040101600168F7
:101F50004FF0010801F0040100910099016841F07F
:101F60000801016000684FF4005100F00800009083
:101F700000983046FEF742FB204601210122FEF781
:101F80003DFB20464FF4A2610022FEF737FBCDE96E
:101F9000015801AD4FF00209304629460397CDF8AC
:101FA0001090FEF723FA40F20140CDE901082046E7
:101FB0002946CDE90379FEF719FA4FF48870CDE987
:101FC000010803200490204629460397FEF70EFAE5
:101FD0004FF40070CDE90107204629460397FEF72C
:101FE00005FA05B0BDE8F08380B540F2740045F213
:101FF0000041C2F20000C4F2000148F2A0620023D6
:102000004FF4804CC0F2010280E80E00C0E9033CAE
:10201000C0E90533C0E90733FEF7FCFA002808BF22
:1020200080BDBDE88040FEF747B9000080B540F2B2
:10203000C80043F20001C2F20000C4F201014FF4F3
:102040008272002380E80E0000F114014FF4007C3E
:102050004FF0180E81E808500A21C0E90333C0E9A7
:102060000833C0E90A31FEF779FF002808BF80BDB8
:10207000BDE88040FEF720B9B0B594B040F2201022
:102080000021C2F2000044F61F650E91CDE90C114B
:102090000991CDE90711CDE90511CDE90311CDE98C
:1020A00001114FF080424723C0E9021501618021F0
:1020B000C0E900238161FFF739F8002818BFFEF757
:1020C000FBF84FF480500B9040F22010C2F2000059
:1020D0000BA9FFF7BFF8002818BFFEF7EDF840F294
:1020E0002010C2F20000FFF787FA002818BFFEF7A1
:1020F000E3F840F220100024C2F2000008A9CDE964
:102100000844FEF7D3FF002818BFFEF7D5F860207B
:10211000019040F2DC50CDE9020440F22010C2F2FE
:10212000000001A900220594FFF764F9002818BFF8
:10213000FEF7C2F840F22010C2F2000001A904220A
:10214000FFF758F9002818BFFEF7B6F840F2201044
:10215000C2F2000001A90822FFF74CF9002818BFBD
:10216000FEF7AAF840F22014C2F20004002501A9EB
:1021700020460C220295FFF73DF9002818BFFEF714
:102180009BF8206840F20041C4F200018842139598
:10219000CDE91155109515D0B0F1804F2DD141F2F8
:1021A0001800C4F20200016841F0040101600068F7
:1021B0000F2100F004000F900F9840F60000C4F2C9
:1021C000010013E041F21800C4F20200016841F07E
:1021D000080101600068022100F008000F900F98CC
:1021E00040F60000C4F2010000F580601091022169
:1021F0001191139110A9FEF7F9F814B0B0BD0000C9
:1022000070B590B040F2681040F200450021C2F273
:10221000000044F61F63C4F20005CDE90811CDE9C2
:102220000611CDE904114722C0E9021301618021A2
:10223000C0E900528161FFF7DFF9002818BFFEF7FF
:102240003BF840F26810C2F2000008A9FEF72EFF2A
:10225000002818BFFEF730F8602040F268140190A3
:1022600040F2DC50C2F200040290002601A9204690
:102270000C2203960596FFF7BDF8002818BFFEF75D
:102280001BF82068CDE90E66A8420D960C9613D077
:10229000B0F1804F27D141F21800C4F2020001686A
:1022A00041F00401016000680F2100F004000B9070
:1022B0000B9805F582300FE041F21800C4F20200DD
:1022C000016841F0080101600068022100F0080087
:1022D0000B900B9805F584300C9102210D910F9114
:1022E0000CA9FEF783F810B070BD000080B540F275
:1022F000B01043F60001C2F20000C4F20101002355
:102300004FF00C0C4FF4E13280E80E00C0E90333CB
:10231000C0E905C3C361FFF72FFD002808BF80BDDA
:10232000BDE88040FDF7C8BFFEE70000FEE7000003
:1023300070470000B0B540F22014C2F200042046FD
:102340000021FFF7EFF920460421FFF7EBF92046C3
:102350000821FFF7E7F920460C21FFF7E3F940F2E7
:102360006815C2F2000528460C21FFF7DBF920684A
:1023700040F2DC5141638163C163016428680164F8
:10238000B0BD00000138B429C0B228BFB42105286F
:102390001DD82F22C240D20708BF70474FF4FA62FF
:1023A000514341F2C262C0F26C12A1FB021242F22E
:1023B0007C51C0F6000151F8201042F29453C0F64F
:1023C000000353F82000096802F5FA720A507047BA
:1023D00070470000FEF706BA70470000406A00210F
:1023E000C185C184FFF70EBA81B090F8421022294E
:1023F00021D183680246B3F5805F09D152F8281FC6
:1024000052F8183C002B63D003685B680AE000BFF9
:1024100052F8281F13B90369002BF5D003685B68D5
:1024200003F07F030B70116801311160C18D013918
:102430000A04C18502D001B0704700BF0168CA68B4
:1024400022F02002CA60CA6822F48072CA604A6917
:1024500022F001024A61202180F8421000214163EC
:10246000026B012A3CD10163016851E8031F026835
:1024700021F0100142E80313DBB1016851E8031FAA
:10248000026821F0100142E8031393B1016851E89A
:10249000031F026821F0100142E803134BB10168E9
:1024A00051E8031F026821F0100142E80313002BDA
:1024B000DAD101680A68D20606D5002200920A68BD
:1024C0000092496800910099818D01B0FFF798B999
:1024D000026852686FF35F2221F8022B8162A5E740
:1024E00001B0FFF703BD000040F2B010C2F20000DF
:1024F000FFF78AB9FEE7000090B0FEF781F90024EB
:102500000120CDE90B44CDE9094406900A904FF42F
:10251000E0104FF4803102250F9006A8CDE9071492
:10252000CDE90D51FEF71AFB20B1EFF3108072B622
:10253000FEE700BF0F20CDE901054FF48060CDE933
:10254000040401A802210394FEF702FA20B1EFF37C
:10255000108072B6FEE700BFFFF7CEFCFFF744FD28
:10256000FFF764FDFFF788FDFFF7C0FEFFF748FEA9
:10257000FDF79CFEFDF77CFEFCE70000200100203B
:102580002001002020010020200100202001002047
:102590006801002034000000380000003C0000000A
:1025A0004000000034000000400000000000000077
:1025B00000000000010203040607080900000000F3
:1025C00001020304010202030405060708090A0BBD
:1025D0000C0D0E0F10100000F82500080000002060
:1025E000100000005001000808260008100000201C
:1025F000F00700007001000801000000100000005A
:0826000000127A000000000046
:04000005080000ED02
:00000001FF
